:020000040800F2
:1000000000000120593C0008AD0B0008BB0B0008A4
:10001000C10B0008C70B0008CD0B00080000000052
:10002000000000000000000000000000D30B0008EA
:10003000E10B000800000000EF0B0008FD0B0008BA
:10004000A93C0008A93C0008A93C0008A93C0008FC
:10005000A93C0008A93C0008A93C0008A93C0008EC
:10006000A93C0008A93C0008A93C0008A93C0008DC
:10007000A93C0008A93C0008A93C0008A93C0008CC
:10008000A93C0008A93C0008A93C0008A93C0008BC
:10009000A93C0008A93C0008A93C0008A93C0008AC
:1000A000A93C0008A93C0008A93C0008A93C00089C
:1000B000A93C00080000000000000000A93C000866
:1000C000A93C00080000000000000000A93C000856
:1000D00000000000A93C0008A93C00080000000046
:1000E000A93C0008A93C0008000000000000000036
:1000F0000000000000000000000000000000000000
:10010000000000000000000000000000A93C000802
:100110000000000000000000A93C0008A93C000805
:10012000A93C0008A93C0008A93C0008A93C00081B
:10013000A93C0008000000000000000000000000D2
:10014000A93C0008A93C0008A93C0008A93C0008FB
:10015000A93C0008A93C0008A93C0008A93C0008EB
:10016000A93C0008A93C0008A93C000800000000C8
:10017000A93C0008A93C00080000000000000000A5
:0C018000A93C0008A93C0008A93C0008AC
:10018C0010B5054C237833B9044B13B10448AFF3C5
:10019C0000800123237010BD10000020000000001F
:1001AC00043D000808B5034B1BB103490348AFF3EA
:1001BC00008008BD0000000014000020043D000871
:1001CC0053B94AB9002908BF00281CBF4FF0FF31B2
:1001DC004FF0FF3000F07AB9ADF1080C6DE904CEA8
:1001EC0000F006F8DDF804E0DDE9022304B0704706
:1001FC002DE9F0478C460D460446089E002B51D144
:10020C008A4217466DD9B2FA82FEBEF1000F0BD0AE
:10021C00CEF1200C01FA0EF520FA0CFC02FA0EF7C6
:10022C004CEA050C00FA0EF44FEA174A250CBCFBFD
:10023C00FAF81FFA87F90AFB18CC45EA0C4508FBBB
:10024C0009F3AB420AD9ED1908F1FF3280F0238192
:10025C00AB4240F22081A8F102083D44ED1AA4B251
:10026C00B5FBFAF00AFB105544EA054400FB09F90A
:10027C00A14509D9E41900F1FF3380F00A81A145A9
:10028C0040F2078102383C44A4EB090440EA0840E0
:10029C000021002E61D024FA0EF400233460736028
:1002AC00BDE8F0878B4207D9002E54D0002186E898
:1002BC0021000846BDE8F087B3FA83F1002940F02D
:1002CC008E80AB4202D3824200F2FA80841A65EB34
:1002DC0003050120AC46002E3FD086E81010BDE887
:1002EC00F08712B90127B7FBF2F7B7FA87FEBEF118
:1002FC00000F34D1EB1B3A0C1FFA87FC0121B3FB26
:10030C00F2F8250C02FB183345EA03450CFB08F305
:10031C00AB4207D9ED1908F1FF3002D2AB4200F223
:10032C00D1808046ED1AA3B2B5FBF2F002FB10555A
:10033C0043EA05440CFB00FCA44507D9E41900F181
:10034C00FF3302D2A44500F2B8801846A4EB0C048B
:10035C0040EA08409DE731463046BDE8F087CEF1D3
:10036C00200405FA0EF307FA0EF720FA04F83A0CFB
:10037C0025FA04F448EA0308B4FBF2F14FEA1845F5
:10038C0002FB11441FFA87FC45EA044501FB0CF300
:10039C00AB4200FA0EF409D9ED1901F1FF3080F0EF
:1003AC008A80AB4240F2878002393D44EB1A1FFA37
:1003BC0088F5B3FBF2F002FB103345EA034500FB72
:1003CC000CF3AB4207D9ED1900F1FF386FD2AB42F9
:1003DC006DD902383D44EB1A40EA01418FE7C1F177
:1003EC00200722FA07F88B4005FA01F448EA0303C8
:1003FC0020FA07FE4FEA134CFD404EEA040EB5FB03
:10040C00FCF94FEA1E440CFB19551FFA83F844EA19
:10041C00054509FB08F4AC4202FA01F200FA01FAB4
:10042C0008D9ED1809F1FF3043D2AC4241D9A9F1FA
:10043C0002091D442D1B1FFA8EFEB5FBFCF00CFBB4
:10044C0010554EEA054400FB08F8A04507D9E418FE
:10045C0000F1FF3529D2A04527D902381C4440EAC7
:10046C000940A4EB0804A0FB02894C45C6464D4646
:10047C0015D312D056B1BAEB0E0364EB050404FA93
:10048C0007F7CB401F43CC40376074600021BDE8B8
:10049C00F0871846F8E69046E0E6C245EAD2B8EB9B
:1004AC00020E69EB03050138E4E72846D7E740461E
:1004BC0091E78146BEE7014678E702383C4445E7C0
:1004CC00084608E7A8F102083D442BE7704700BF37
:1004DC0080B500AF01220821024800F0C1FE0023C4
:1004EC00184680BD0004004880B500AF00224021B2
:1004FC001D4800F0B5FE4FF47A7000F029FC012283
:10050C000221194800F0ACFE4FF47A7000F020FC88
:10051C00164B1B68192B07D1154B1B687D225A6390
:10052C00124B7D221A6012E0104B1B68192B0ED057
:10053C0009E00E4B1B6805330C4A13600C4B1B680F
:10054C000A4A12685A63094B1B687D2BF1D14FF490
:10055C00FA6000F0FDFB00220221034800F080FE4F
:10056C000023184680BD00BF000400480000002096
:10057C002C00002080B500AF002208211B4800F0A1
:10058C006FFE4FF47A7000F0E3FB01220221174852
:10059C0000F066FE4FF47A7000F0DAFB16E01021E2
:1005AC00124800F045FE0346002B01D101231BE04D
:1005BC000F4B1B68053B0E4A13600E4B1B680C4A15
:1005CC0012685A634FF4967000F0C2FB084B1B681C
:1005DC00192BE4D14FF4FA6000F0BAFB002202218F
:1005EC00024800F03DFE0323184680BD000400487D
:1005FC00000000202C00002080B500AF012240211B
:10060C00024800F02DFE0323184680BD000400486C
:10061C0080B582B000AF00F027FB00F057F800F077
:10062C0085F900F053F900F0D9F80021254802F0C3
:10063C00A5F8244B1B6819225A63FFF7DDFF03460C
:10064C00FB71FB79032B37D801A252F823F000BFC2
:10065C00990600088F060008BB0600086D06000806
:10066C002021194800F0E4FD0346002B04D0FFF7CD
:10067C003BFF0346FB7124E0FFF7BEFF0346FB7113
:10068C001FE0FFF725FF0346FB711AE020210E48FF
:10069C0000F0CEFD0346002B04D0FFF76BFF0346A2
:1006AC00FB710EE0FFF714FF0346FB7109E0FFF747
:1006BC00A3FF0346FB7104E0FFF79EFF0346FB71AB
:1006CC0000BFBEE72C0000200004004880B5ACB091
:1006DC0000AF07F16C0344220021184603F004FB21
:1006EC0007F1580300221A605A609A60DA601A61A6
:1006FC003B1D54220021184603F0F6FA00F0C8FD09
:10070C00354A354BD3F8903023F01803C2F89030AB
:10071C001423FB6601237B670123C7F88430002375
:10072C00C7F888306023C7F88C300223C7F89430A0
:10073C000123C7F898300123C7F89C302D23C7F844
:10074C00A0300723C7F8A4300223C7F8A83004232D
:10075C00C7F8AC3007F16C03184600F00DFE0346E9
:10076C00002B01D000F04AF90F23BB650323FB6576
:10077C0000233B6600237B660023BB6607F158030E
:10078C000221184601F018FA0346002B01D000F0A4
:10079C0035F902237B600023BB623B1D184601F038
:1007AC0043FC0346002B01D000F028F900224FF047
:1007BC008071002001F0E2FA4FF4007000F086FD29
:1007CC000346002B01D000F019F901F01FFE00BF09
:1007DC00B037BD4680BD00BF0010024080B58EB062
:1007EC0000AF07F1280300221A605A609A60DA60A1
:1007FC0007F11C0300221A605A609A603B460022E3
:10080C001A605A609A60DA601A615A619A612E4BCA
:10081C004FF080421A602C4B40F283325A602A4BC4
:10082C0000229A60284B40F2E732DA60264B002215
:10083C001A61254B00229A61234801F0E7FE03461A
:10084C00002B01D000F0DAF84FF48053BB6207F1B3
:10085C00280319461C4802F07FF90346002B01D0EF
:10086C0000F0CCF8184801F028FF0346002B01D00B
:10087C0000F0C4F80023FB6100237B6207F11C032A
:10088C001946114802F0C4FD0346002B01D000F0BC
:10089C00B5F860233B6000237B600023BB60002322
:1008AC003B613B4600221946074802F045F80346D7
:1008BC00002B01D000F0A2F8034800F0E9F800BFCB
:1008CC003837BD4680BD00BF2C00002080B500AF7E
:1008DC00144B154A1A60134B4FF4E1325A60114B0A
:1008EC0000229A600F4B0022DA600E4B00221A6134
:1008FC000C4B0C225A610B4B00229A61094B0022C3
:10090C00DA61084B00221A62064B00225A62054833
:10091C0002F0E4FD0346002B01D000F06FF800BF9D
:10092C0080BD00BF780000200044004080B588B036
:10093C0000AF07F10C0300221A605A609A60DA606B
:10094C001A612C4A2B4BDB6C43F00403D364294B08
:10095C00DB6C03F00403BB60BB68264A254BDB6CE5
:10096C0043F00103D364234BDB6C03F001037B6086
:10097C007B68204A1F4BDB6C43F00203D3641D4B96
:10098C00DB6C03F002033B603B6800226A211A48CF
:10099C0000F066FC6A23FB6001233B6100237B6152
:1009AC000023BB6107F10C031946134800F0D6FA7B
:1009BC004FF48073FB6002233B6100237B610023B7
:1009CC00BB610023FB6107F10C0319464FF090400B
:1009DC0000F0C4FA1023FB6000233B6100237B6111
:1009EC0007F10C031946044800F0B8FA00BF203791
:1009FC00BD4680BD001002400004004880B400AF2A
:100A0C0000BFBD465DF8047B7047000080B483B026
:100A1C0000AF0F4A0E4B1B6E43F0010313660C4BD9
:100A2C001B6E03F001037B607B68094A084B9B6DCE
:100A3C0043F080539365064B9B6D03F080533B60F2
:100A4C003B6800BF0C37BD465DF8047B704700BFA8
:100A5C000010024080B485B000AF78607B681B68E2
:100A6C00B3F1804F0BD1094A084B9B6D43F0010346
:100A7C009365064B9B6D03F00103FB60FB6800BFA5
:100A8C001437BD465DF8047B704700BF0010024070
:100A9C0080B588B000AF786007F10C0300221A60B3
:100AAC005A609A60DA601A617B681B68B3F1804FF8
:100ABC001CD1104A0F4BDB6C43F00103D3640D4B7C
:100ACC00DB6C03F00103BB60BB682023FB600223DB
:100ADC003B6100237B610023BB610123FB6107F1B8
:100AEC000C0319464FF0904000F038FA00BF203745
:100AFC00BD4680BD0010024080B58AB000AF786062
:100B0C0007F1140300221A605A609A60DA601A61C5
:100B1C007B681B68204A93423AD1204A1F4B9B6D3D
:100B2C0043F4003393651D4B9B6D03F400333B6121
:100B3C003B691A4A194BDB6C43F00103D364174B26
:100B4C00DB6C03F00103FB60FB6804237B61022375
:100B5C00BB610023FB6103233B6207237B6207F12C
:100B6C00140319464FF0904000F0F8F94FF400438D
:100B7C007B610223BB610023FB6103233B620323E4
:100B8C007B6207F1140319464FF0904000F0E6F930
:100B9C0000BF2837BD4680BD004400400010024015
:100BAC0080B400AF00BFBD465DF8047B704780B4D5
:100BBC0000AFFEE780B400AFFEE780B400AFFEE705
:100BCC0080B400AFFEE780B400AF00BFBD465DF857
:100BDC00047B704780B400AF00BFBD465DF8047B5A
:100BEC00704780B400AF00BFBD465DF8047B704712
:100BFC0080B500AF00F08CF800BF80BD80B400AFB2
:100C0C00174A174BD3F8883043F47003C2F8883076
:100C1C00144A144B1B6843F001031360114B002260
:100C2C009A60104A0F4B1B6823F0A85323F410232F
:100C3C0013600C4B4FF48052DA600A4A094B1B6864
:100C4C0023F480231360074B00229A61044B4FF06E
:100C5C0000629A6000BFBD465DF8047B704700BF20
:100C6C0000ED00E00010024080B582B000AF002320
:100C7C00FB71032000F03EF9002000F00DF8034654
:100C8C00002B02D00123FB7101E0FFF7BFFEFB79C3
:100C9C0018460837BD4680BD80B584B000AF78607B
:100CAC000023FB73174B1B78002B23D0164B1A68B1
:100CBC00144B1B7819464FF47A73B3FBF1F3B2FB68
:100CCC00F3F3184600F03DF90346002B0FD17B6877
:100CDC000F2B09D8002279684FF0FF3000F015F97E
:100CEC000A4A7B68136007E00123FB7304E00123CD
:100CFC00FB7301E00123FB73FB7B18461037BD46E9
:100D0C0080BD00BF0C000020040000200800002063
:100D1C0080B400AF064B1B781A46064B1B68134475
:100D2C00044A136000BFBD465DF8047B704700BFEA
:100D3C000C000020F800002080B400AF034B1B68AF
:100D4C001846BD465DF8047B704700BFF8000020D4
:100D5C0080B584B000AF7860FFF7EEFFB8607B68B9
:100D6C00FB60FB68B3F1FF3F05D0094B1B781A46BB
:100D7C00FB681344FB6000BFFFF7DEFF0246BB6855
:100D8C00D21AFB689A42F7D300BF1037BD4680BD1C
:100D9C000C00002080B485B000AF78607B6803F055
:100DAC000703FB600C4BDB68BB60BA684FF6FF03B4
:100DBC001340BB60FB681A02BB68134343F0BF636C
:100DCC0043F40033BB60044ABB68D36000BF1437E4
:100DDC00BD465DF8047B704700ED00E080B400AFC9
:100DEC00044BDB681B0A03F007031846BD465DF88D
:100DFC00047B704700ED00E080B483B000AF034685
:100E0C003960FB7197F90730002B0ADB0D4997F914
:100E1C0007303A68D2B21201D2B20B4483F80023E5
:100E2C000AE00949FB7903F00F03043B3A68D2B29C
:100E3C001201D2B20B441A7600BF0C37BD465DF8D6
:100E4C00047B704700E100E000ED00E080B489B065
:100E5C0000AFF860B9607A60FB6803F00703FB61D0
:100E6C00FB69C3F10703042B28BF0423BB61FB6997
:100E7C000433062B02D9FB69033B00E000237B61A2
:100E8C000122BB6902FA03F35A1EBB681A407B6944
:100E9C009A4001217B6901FA03F3591E7B680B40D0
:100EAC00134318462437BD465DF8047B7047000099
:100EBC0080B582B000AF78607B68013BB3F1807F76
:100ECC0001D301230FE00A4A7B68013B53600F21D9
:100EDC004FF0FF30FFF790FF054B00229A60044B58
:100EEC0007221A60002318460837BD4680BD00BF94
:100EFC0010E000E080B582B000AF78607868FFF752
:100F0C0049FF00BF0837BD4680BD80B586B000AF35
:100F1C000346B9607A60FB7300237B61FFF75EFFC9
:100F2C0078617A68B9687869FFF790FF024697F99B
:100F3C000F3011461846FFF75FFF00BF1837BD464C
:100F4C0080BD80B582B000AF78607868FFF7B0FFE5
:100F5C00034618460837BD4680BD000080B487B0F4
:100F6C0000AF7860396000237B6148E13B681A6808
:100F7C0001217B6901FA03F31340FB60FB68002B32
:100F8C0000F03A813B685B68012B0BD03B685B68D7
:100F9C00022B07D03B685B68112B03D03B685B6866
:100FAC00122B30D17B689B683B617B695B00032211
:100FBC0002FA03F3DB433A6913403B613B68DA689E
:100FCC007B695B0002FA03F33A6913433B617B686C
:100FDC003A699A607B685B683B6101227B6902FA23
:100FEC0003F3DB433A6913403B613B685B681B09C5
:100FFC0003F001027B6902FA03F33A6913433B6184
:10100C007B683A695A607B68DB683B617B695B0093
:10101C00032202FA03F3DB433A6913403B613B685A
:10102C009A687B695B0002FA03F33A6913433B61EC
:10103C007B683A69DA603B685B68022B03D03B68DB
:10104C005B68122B23D17B69DA087B68083253F872
:10105C0022303B617B6903F007039B000F2202FAED
:10106C0003F3DB433A6913403B613B681A697B69C4
:10107C0003F007039B0002FA03F33A6913433B6145
:10108C007B69DA087B680832396943F822107B687F
:10109C001B683B617B695B00032202FA03F3DB43B1
:1010AC003A6913403B613B685B6803F003027B6960
:1010BC005B0002FA03F33A6913433B617B683A69BC
:1010CC001A603B685B6803F08053002B00F094803F
:1010DC00524A524B1B6E43F0010313664F4B1B6E6F
:1010EC0003F00103BB60BB684D4A7B699B0802336C
:1010FC0052F823303B617B6903F003039B000F2202
:10110C0002FA03F3DB433A6913403B617B68B3F1AA
:10111C00904F0DD07B68434A934207D07B68424A7C
:10112C00934201D1022304E0072302E0012300E0F3
:10113C0000237A6902F00302920093403A69134348
:10114C003B6137497B699B0802333A6941F823209C
:10115C00364B1B683B61FB68DB433A6913403B61D0
:10116C003B685B6803F48033002B03D03A69FB685F
:10117C0013433B612D4A3B6913602C4B5B683B610D
:10118C00FB68DB433A6913403B613B685B6803F4E3
:10119C000033002B03D03A69FB6813433B61234AAD
:1011AC003B695360214B9B683B61FB68DB433A69AD
:1011BC0013403B613B685B6803F48013002B03D046
:1011CC003A69FB6813433B61184A3B699360174BC0
:1011DC00DB683B61FB68DB433A6913403B613B686E
:1011EC005B6803F40013002B03D03A69FB681343CC
:1011FC003B610E4A3B69D3607B6901337B613B6881
:10120C001A687B6922FA03F3002B7FF4AFAE00BFA0
:10121C001C37BD465DF8047B704700BF00100240D0
:10122C000000014000040048000800480004014090
:10123C0080B485B000AF78600B467B807B681A6900
:10124C007B881340002B02D00123FB7301E00023A9
:10125C00FB73FB7B18461437BD465DF8047B704767
:10126C0080B483B000AF78600B467B8013467B70F4
:10127C007B78002B03D07A887B689A6102E07A88AD
:10128C007B689A6200BF0C37BD465DF8047B7047E3
:10129C0080B400AF054A054B1B6843F480731360A0
:1012AC0000BFBD465DF8047B704700BF0070004076
:1012BC0080B400AF044B1B6803F4C0631846BD46F2
:1012CC005DF8047B704700BF0070004080B485B0AF
:1012DC0000AF78607B68B3F5007F30D1234B1B687F
:1012EC0003F4C063B3F5007F38D0204A1F4B1B6852
:1012FC0023F4C06343F4007313601D4B1B6832224C
:10130C0002FB03F31B4AA2FB03239B0C0133FB6080
:10131C0002E0FB68013BFB60144B5B6903F48063E8
:10132C00B3F5806F02D1FB68002BF2D10F4B5B69D8
:10133C0003F48063B3F5806F10D103230FE00B4BE4
:10134C001B6803F4C063B3F5806F07D0074A074BE3
:10135C001B6823F4C06343F48063136000231846B6
:10136C001437BD465DF8047B704700BF0070004029
:10137C000400002083DE1B4380B588B000AF78608A
:10138C007B68002B02D1012300F011BCA04B9B68A1
:10139C0003F00C03BB619E4BDB6803F003037B6122
:1013AC007B681B6803F01003002B00F0E480BB6922
:1013BC00002B07D0BB690C2B40F08B807B69012B79
:1013CC0040F08780924B1B6803F00203002B05D082
:1013DC007B689B69002B01D10123E8E37B681A6AC7
:1013EC008B4B1B6803F00803002B04D0884B1B6845
:1013FC0003F0F00305E0864BD3F894301B0903F09F
:10140C00F0039A4223D97B681B6A184600F0ACFDA6
:10141C000346002B01D00123C9E37D4A7C4B1B689A
:10142C0043F0080313607A49794B1B6823F0F002F0
:10143C007B681B6A13430B607549754B5B6823F41F
:10144C007F427B68DB691B0213434B6025E0704ACB
:10145C006F4B1B6843F0080313606D496C4B1B68A2
:10146C0023F0F0027B681B6A13430B606849684BDE
:10147C005B6823F47F427B68DB691B0213434B6080
:10148C00BB69002B09D17B681B6A184600F06CFD08
:10149C000346002B01D0012389E300F0A3FC014695
:1014AC005B4B9B681B0903F00F035A4AD35C03F098
:1014BC001F0321FA03F3584A1360584B1B68184654
:1014CC00FFF7EAFB0346FB73FB7B002B52D0FB7B45
:1014DC006DE37B689B69002B32D04D4A4C4B1B68EB
:1014EC0043F001031360FFF727FC386108E0FFF7B6
:1014FC0023FC02463B69D31A022B01D9032356E382
:10150C00434B1B6803F00203002BF0D0404A404BC6
:10151C001B6843F0080313603D493D4B1B6823F0E7
:10152C00F0027B681B6A13430B603949384B5B68CC
:10153C0023F47F427B68DB691B0213434B601AE088
:10154C00334A334B1B6823F001031360FFF7F4FBA2
:10155C00386108E0FFF7F0FB02463B69D31A022B17
:10156C0001D9032323E32A4B1B6803F00203002B4E
:10157C00F0D100E000BF7B681B6803F00103002B77
:10158C0073D0BB69082B05D0BB690C2B0ED17B69C2
:10159C00032B0BD11E4B1B6803F40033002B63D0C1
:1015AC007B685B68002B5FD1012300E37B685B6881
:1015BC00B3F5803F06D1164A154B1B6843F48033B4
:1015CC0013601DE07B685B68B3F5A02F0CD1104A4B
:1015DC000F4B1B6843F4802313600D4A0C4B1B68A4
:1015EC0043F4803313600BE0094A094B1B6823F466
:1015FC0080331360064A064B1B6823F48023136068
:10160C007B685B68002B1BD0FFF796FB386110E002
:10161C00001002401C3D00080400002008000020BF
:10162C00FFF78AFB02463B69D31A642B01D90323CB
:10163C00BDE2AF4B1B6803F40033002BF0D014E079
:10164C00FFF77AFB386108E0FFF776FB02463B694F
:10165C00D31A642B01D90323A9E2A54B1B6803F40D
:10166C000033002BF0D100E000BF7B681B6803F057
:10167C000203002B60D0BB69042B05D0BB690C2B7B
:10168C0019D17B69022B16D1994B1B6803F480632B
:10169C00002B05D07B68DB68002B01D1012386E28F
:1016AC009349934B5B6823F0FE427B681B691B06D6
:1016BC0013434B6040E07B68DB68002B23D08C4AE3
:1016CC008B4B1B6843F480731360FFF735FB386159
:1016DC0008E0FFF731FB02463B69D31A022B01D914
:1016EC00032364E2824B1B6803F48063002BF0D06D
:1016FC007F497F4B5B6823F0FE427B681B691B06AE
:10170C0013434B6018E07A4A794B1B6823F48073BF
:10171C001360FFF711FB386108E0FFF70DFB024681
:10172C003B69D31A022B01D9032340E2704B1B688F
:10173C0003F48063002BF0D17B681B6803F0080373
:10174C00002B3CD07B685B69002B1CD0684A684B33
:10175C00D3F8943043F00103C2F89430FFF7ECFA5D
:10176C00386108E0FFF7E8FA02463B69D31A022B0E
:10177C0001D903231BE25E4BD3F8943003F0020330
:10178C00002BEFD01BE05A4A594BD3F8943023F07E
:10179C000103C2F89430FFF7CFFA386108E0FFF785
:1017AC00CBFA02463B69D31A022B01D90323FEE183
:1017BC004F4BD3F8943003F00203002BEFD17B682E
:1017CC001B6803F00403002B00F0A6800023FB77BA
:1017DC00474B9B6D03F08053002B0DD1444A444B77
:1017EC009B6D43F080539365414B9B6D03F080538D
:1017FC00BB60BB680123FB773E4B1B6803F4807313
:10180C00002B18D13B4A3B4B1B6843F4807313608D
:10181C00FFF792FA386108E0FFF78EFA02463B694F
:10182C00D31A022B01D90323C1E1324B1B6803F4F9
:10183C008073002BF0D07B689B68012B08D12C4A5D
:10184C002B4BD3F8903043F00103C2F8903024E0D6
:10185C007B689B68052B10D1254A254BD3F890301B
:10186C0043F00403C2F89030214A214BD3F8903056
:10187C0043F00103C2F890300FE01D4A1C4BD3F823
:10188C00903023F00103C2F89030194A184BD3F86A
:10189C00903023F00403C2F890307B689B68002BD7
:1018AC0016D0FFF749FA38610AE0FFF745FA02460D
:1018BC003B69D31A41F28832934201D9032376E172
:1018CC000B4BD3F8903003F00203002BEDD01AE051
:1018DC00FFF732FA38610FE0FFF72EFA02463B6948
:1018EC00D31A41F28832934206D903235FE100BF39
:1018FC000010024000700040AA4BD3F8903003F067
:10190C000203002BE8D1FB7F012B05D1A54AA54B87
:10191C009B6D23F0805393657B681B6803F0200359
:10192C00002B3CD07B685B6A002B1CD09D4A9D4BE6
:10193C00D3F8983043F00103C2F89830FFF7FCF964
:10194C00386108E0FFF7F8F902463B69D31A022B1D
:10195C0001D903232BE1934BD3F8983003F0020306
:10196C00002BEFD01BE08F4A8E4BD3F8983023F02E
:10197C000103C2F89830FFF7DFF9386108E0FFF790
:10198C00DBF902463B69D31A022B01D903230EE182
:10199C00844BD3F8983003F00203002BEFD17B6813
:1019AC009B6A002B00F002817B689B6A022B40F043
:1019BC00C5807C4BDB687B617B6903F003027B6831
:1019CC00DB6A9A422CD17B6903F070027B681B6B3B
:1019DC00013B1B019A4223D17B6903F4FE427B68D5
:1019EC005B6B1B029A421BD17B6903F078427B68CC
:1019FC009B6BDB069A4213D17B6903F4C0027B68B4
:101A0C00DB6B5B08013B5B059A4209D17B6903F0F8
:101A1C00C0627B681B6C5B08013B5B069A4267D01B
:101A2C00BB690C2B62D05F4B1B6803F08063002BEF
:101A3C0001D00123BBE05B4A5A4B1B6823F0807337
:101A4C001360FFF779F9386108E0FFF775F9024682
:101A5C003B69D31A022B01D90323A8E0514B1B6815
:101A6C0003F00073002BF0D14E484E4BDA684E4B0E
:101A7C0013407A68D16A7A68126B013A12011143E9
:101A8C007A68526B120211437A68D26B5208013A8F
:101A9C00520511437A68126C5208013A52061143EE
:101AAC007A68926BD2060A431343C3603D4A3D4B9E
:101ABC001B6843F0807313603A4A3A4BDB6843F07F
:101ACC008073D360FFF738F9386108E0FFF734F919
:101ADC0002463B69D31A022B01D9032367E0314B31
:101AEC001B6803F00073002BF0D05FE001235EE075
:101AFC002C4B1B6803F00073002B57D1294A294B40
:101B0C001B6843F080731360264A264BDB6843F056
:101B1C008073D360FFF710F9386108E0FFF70CF918
:101B2C0002463B69D31A022B01D903233FE01D4B1C
:101B3C001B6803F00073002BF0D037E0BB690C2B53
:101B4C002DD0184A174B1B6823F080731360154B6C
:101B5C001B6803F00063002B05D1124A114BDB68A4
:101B6C0023F00303D3600F4A0E4BDB6823F088731A
:101B7C0023F48033D360FFF7DFF8386108E0FFF718
:101B8C00DBF802463B69D31A022B01D903230EE082
:101B9C00044B1B6803F00073002BF0D106E001230B
:101BAC0005E000BF001002408C809D010023184608
:101BBC002037BD4680BD00BF80B584B000AF7860D3
:101BCC0039607B68002B01D10123C8E0664B1B6890
:101BDC0003F007023B689A4210D26349624B1B68C0
:101BEC0023F007023B6813430B605F4B1B6803F049
:101BFC0007023B689A4201D00123B0E07B681B6866
:101C0C0003F00103002B4CD07B685B68032B07D1DE
:101C1C00564B1B6803F00073002B21D101239EE06F
:101C2C007B685B68022B07D1504B1B6803F40033B5
:101C3C00002B15D1012392E07B685B68002B07D148
:101C4C004A4B1B6803F00203002B09D1012386E0E9
:101C5C00464B1B6803F48063002B01D101237EE00B
:101C6C004249424B9B6823F003027B685B68134339
:101C7C008B60FFF761F8F8600AE0FFF75DF8024649
:101C8C00FB68D31A41F28832934201D9032366E0F0
:101C9C00364B9B6803F00C027B685B689B009A4296
:101CAC00EBD17B681B6803F00203002B08D02F4993
:101CBC002E4B9B6823F0F0027B689B6813438B6070
:101CCC00294B1B6803F007023B689A4210D926493E
:101CDC00254B1B6823F007023B6813430B60224B18
:101CEC001B6803F007023B689A4201D0012336E0DF
:101CFC007B681B6803F00403002B08D01B491B4BAB
:101D0C009B6823F4E0627B68DB6813438B607B6821
:101D1C001B6803F00803002B09D01449134B9B6874
:101D2C0023F460527B681B69DB0013438B6000F06B
:101D3C0059F801460D4B9B681B0903F00F030C4A25
:101D4C00D35C03F01F0321FA03F30A4A13600A4B16
:101D5C001B681846FEF7A0FF0346FB72FB7A184679
:101D6C001037BD4680BD00BF00200240001002406D
:101D7C001C3D0008040000200800002080B58AB03B
:101D8C0000AFF860B9607A60154A154BDB6C43F014
:101D9C000103D364124BDB6C03F001033B613B6921
:101DAC004FF480737B610223BB6102233B620023EF
:101DBC00FB6100237B6207F1140319464FF090403E
:101DCC00FFF7CCF80648064B9B6823F0FE42B96837
:101DDC007B680B431343836000BF2837BD4680BD2F
:101DEC000010024080B489B000AF0023FB610023D7
:101DFC00BB613D4B9B6803F00C033B613A4BDB68CA
:101E0C0003F00303FB603B69002B05D03B690C2BF3
:101E1C0021D1FB68012B1ED1334B1B6803F0080347
:101E2C00002B07D1304BD3F894301B0A03F00F036F
:101E3C00FB6105E02C4B1B681B0903F00F03FB61D6
:101E4C002A4AFB6952F82330FB613B69002B0DD108
:101E5C00FB69BB610AE03B69042B02D1244BBB61DB
:101E6C0004E03B69082B01D1224BBB613B690C2B75
:101E7C0033D11D4BDB6803F00303BB60BB68022B43
:101E8C0002D0032B03D005E0194B7B6105E0194B05
:101E9C007B6102E0FB697B6100BF134BDB681B09B4
:101EAC0003F0070301337B600F4BDB681B0A03F065
:101EBC007F037A6902FB03F27B68B2FBF3F37B616D
:101ECC00094BDB685B0E03F0030301335B003B60E3
:101EDC007A693B68B2FBF3F3BB61BB6918462437E4
:101EEC00BD465DF8047B704700100240343D00088D
:101EFC000024F40000127A0080B400AF034B1B687E
:101F0C001846BD465DF8047B704700BF04000020F6
:101F1C0080B500AFFFF7F0FF0146064B9B681B0A2C
:101F2C0003F00703044AD35C03F01F0321FA03F305
:101F3C00184680BD001002402C3D000880B500AF53
:101F4C00FFF7DAFF0146064B9B68DB0A03F0070339
:101F5C00044AD35C03F01F0321FA03F3184680BD37
:101F6C00001002402C3D000880B586B000AF7860B0
:101F7C0000233B612A4B9B6D03F08053002B03D055
:101F8C00FFF796F9786114E0254A254B9B6D43F0D9
:101F9C0080539365224B9B6D03F08053FB60FB6871
:101FAC00FFF786F978611E4A1D4B9B6D23F0805319
:101FBC0093657B69B3F5007F0BD17B68802B19D9B6
:101FCC007B68A02B02D902233B6113E001233B6108
:101FDC0010E07B68802B02D903233B610AE07B680D
:101FEC00802B02D102233B6104E07B68702B01D172
:101FFC0001233B610B490B4B1B6823F007023B6928
:10200C0013430B60074B1B6803F007023B699A42B2
:10201C0001D0012300E0002318461837BD4680BDCF
:10202C00001002400020024080B586B000AF7860FE
:10203C000023FB740023BB747B681B6803F40063F0
:10204C00002B2FD07B68DB6BB3F5000F05D0B3F5FD
:10205C00400F15D0002B07D00FE0AC4AAB4BDB6820
:10206C0043F48033D3600CE07B68043300211846C2
:10207C0000F0DCF90346FB7403E00123FB7400E081
:10208C0000BFFB7C002B0BD1A049A04BD3F88830B0
:10209C0023F440027B68DB6B1343C1F8883001E00A
:1020AC00FB7CBB747B681B6803F40033002B00F0D3
:1020BC00998000237B74954B9B6D03F08053002B10
:1020CC0001D1012300E00023002B0DD08F4A8F4B50
:1020DC009B6D43F0805393658C4B9B6D03F0805349
:1020EC00BB60BB6801237B74894A894B1B6843F432
:1020FC0080731360FEF720FEF86009E0FEF71CFE0B
:10210C000246FB68D31A022B02D90323FB7405E0A9
:10211C007F4B1B6803F48073002BEFD0FB7C002BF0
:10212C0055D17A4BD3F8903003F440737B617B69C3
:10213C00002B1ED07B681A6D7B699A4219D0734BA9
:10214C00D3F8903023F440737B61704A6F4BD3F813
:10215C00903043F48033C2F890306C4A6B4BD3F818
:10216C00903023F48033C2F89030684A7B69C2F80F
:10217C0090307B6903F00103002B16D0FEF7DCFDD9
:10218C00F8600BE0FEF7D8FD0246FB68D31A41F26B
:10219C008832934202D90323FB7406E05B4BD3F8DD
:1021AC00903003F00203002BECD0FB7C002B0BD106
:1021BC005649564BD3F8903023F440727B681B6D14
:1021CC001343C1F8903004E0FB7CBB7401E0FB7C52
:1021DC00BB747B7C012B05D14C4A4C4B9B6D23F083
:1021EC00805393657B681B6803F00103002B0AD0B6
:1021FC004649464BD3F8883023F003027B681B6AB0
:10220C001343C1F888307B681B6803F00203002B72
:10221C000AD03E493D4BD3F8883023F00C027B6842
:10222C005B6A1343C1F888307B681B6803F020039A
:10223C00002B0AD03549354BD3F8883023F4406253
:10224C007B689B6A1343C1F888307B681B6803F476
:10225C000073002B0AD02D492C4BD3F8883023F473
:10226C0040227B685B6B1343C1F888307B681B682A
:10227C0003F48063002B0AD02449244BD3F8883014
:10228C0023F440127B689B6B1343C1F888307B6846
:10229C001B6803F04003002B0AD01C491B4BD3F8DE
:1022AC00883023F440527B68DB6A1343C1F88830D2
:1022BC007B681B6803F48073002B0AD01349134B03
:1022CC00D3F8883023F440327B681B6B1343C1F87E
:1022DC0088307B681B6803F40053002B2CD00B490F
:1022EC000A4BD3F8883023F040627B681B6C134395
:1022FC00C1F888307B681B6CB3F1006F0AD1034ABC
:10230C00024BDB6843F48013D36015E000100240ED
:10231C00007000407B681B6CB3F1806F0CD17B6844
:10232C0004330121184600F081F80346FB74FB7C52
:10233C00002B01D0FB7CBB747B681B6803F48023EF
:10234C00002B28D03049304BD3F8883023F0406232
:10235C007B685B6C1343C1F888307B685B6CB3F1B2
:10236C00006F06D1284A284BDB6843F48013D360F6
:10237C0011E07B685B6CB3F1806F0CD17B6804332C
:10238C000121184600F052F80346FB74FB7C002B2D
:10239C0001D0FB7CBB747B681B6803F48043002B6F
:1023AC001CD01949184BD3F8883023F040527B6865
:1023BC009B6C1343C1F888307B689B6CB3F1805FD6
:1023CC000CD17B6804330221184600F02FF8034629
:1023DC00FB74FB7C002B01D0FB7CBB747B681B6803
:1023EC0003F40043002B0AD00749074BD3F888307D
:1023FC0023F080427B68DB6C1343C1F88830BB7CD4
:10240C0018461837BD4680BD0010024080B400AF9E
:10241C00054A054B1B6843F00403136000BFBD461F
:10242C005DF8047B704700BF0010024080B584B09B
:10243C0000AF786039600023FB73734BDB6803F0EB
:10244C000303002B18D0704BDB6803F003027B688E
:10245C001B689A420DD17B681B68002B09D06A4B14
:10246C00DB681B0903F007035A1C7B685B689A4204
:10247C0044D00123FB7341E07B681B68022B0CD01A
:10248C00032B13D0012B20D15F4B1B6803F00203ED
:10249C00002B1DD10123FB731AE05B4B1B6803F46B
:1024AC008063002B16D10123FB7313E0564B1B6882
:1024BC0003F40033002B0FD1534B1B6803F4802320
:1024CC00002B09D10123FB7306E00123FB7304E00D
:1024DC0000BF02E000BF00E000BFFB7B002B0DD172
:1024EC004948494BDB6823F073027B6819687B68A9
:1024FC005B68013B1B010B431343C360FB7B002B4D
:10250C007CD1414A404B1B6823F080631360FEF77B
:10251C0013FCB86009E0FEF70FFC0246BB68D31A47
:10252C00022B02D90323FB7305E0374B1B6803F026
:10253C000063002BEFD1FB7B002B5FD13B68002BA2
:10254C0010D13148304B1B6923F0784323F4FE4300
:10255C007A68926811027A68D268D2060A431343E9
:10256C00036127E03B68012B12D12748264B1B69DE
:10257C0023F4C00323F4FE437A68926811027A684C
:10258C0012695208013A52050A431343036111E0E0
:10259C001D481D4B1B6923F0C06323F4FE437A686E
:1025AC00926811027A6852695208013A52060A433B
:1025BC0013430361144A144B1B6843F0806313608C
:1025CC00FEF7BAFBB86009E0FEF7B6FB0246BB6843
:1025DC00D31A022B02D90323FB7305E00A4B1B68A9
:1025EC0003F00063002BEFD0FB7B002B06D10649D8
:1025FC00054B1A697B689B6913430B61FB7B18467F
:10260C001037BD4680BD00BF0010024080B582B0BF
:10261C0000AF78607B68002B01D1012349E07B6817
:10262C0093F83D30DBB2002B06D17B68002283F897
:10263C003C207868FEF70EFA7B68022283F83D2076
:10264C007B681A687B6804331946104600F03EFB21
:10265C007B68012283F848207B68012283F83E20A6
:10266C007B68012283F83F207B68012283F840209D
:10267C007B68012283F841207B68012283F8422089
:10268C007B68012283F843207B68012283F8442075
:10269C007B68012283F845207B68012283F8462061
:1026AC007B68012283F847207B68012283F83D2058
:1026BC00002318460837BD4680BD80B582B000AFF8
:1026CC0078607B68002B01D1012349E07B6893F88B
:1026DC003D30DBB2002B06D17B68002283F83C2016
:1026EC00786800F041F87B68022283F83D207B6813
:1026FC001A687B6804331946104600F0E7FA7B68C9
:10270C00012283F848207B68012283F83E207B68F5
:10271C00012283F83F207B68012283F840207B68EC
:10272C00012283F841207B68012283F842207B68D8
:10273C00012283F843207B68012283F844207B68C4
:10274C00012283F845207B68012283F846207B68B0
:10275C00012283F847207B68012283F83D20002367
:10276C0018460837BD4680BD80B483B000AF786092
:10277C0000BF0C37BD465DF8047B704780B584B054
:10278C0000AF786039603B68002B09D17B6893F807
:10279C003E30DBB2012B14BF01230023DBB23CE043
:1027AC003B68042B09D17B6893F83F30DBB2012BDB
:1027BC0014BF01230023DBB22FE03B68082B09D1A7
:1027CC007B6893F84030DBB2012B14BF012300234C
:1027DC00DBB222E03B680C2B09D17B6893F84130CB
:1027EC00DBB2012B14BF01230023DBB215E03B68E5
:1027FC00102B09D17B6893F84230DBB2012B14BF4C
:10280C0001230023DBB208E07B6893F84330DBB292
:10281C00012B14BF01230023DBB2002B01D00123B9
:10282C007EE03B68002B04D17B68022283F83E20BB
:10283C0023E03B68042B04D17B68022283F83F2001
:10284C001BE03B68082B04D17B68022283F84020F4
:10285C0013E03B680C2B04D17B68022283F84120E7
:10286C000BE03B68102B04D17B68022283F84220DA
:10287C0003E07B68022283F843207B681B680122FB
:10288C003968184600F09EFD7B681B68264A934207
:10289C0009D07B681B68254A934204D07B681B686F
:1028AC00234A934201D1012300E00023002B07D0DF
:1028BC007B681B687A681268526C42F400425A6456
:1028CC007B681B68184A934209D07B681B68B3F17C
:1028DC00804F04D07B681B68144A934215D17B68E7
:1028EC001B689A68134B1340FB60FB68062B15D0D2
:1028FC00FB68B3F5803F11D07B681B687A6812685F
:10290C00126842F001021A6008E07B681B687A6862
:10291C001268126842F001021A6000E000BF002346
:10292C0018461037BD4680BD002C014000400140C8
:10293C00004401400700010080B584B000AFF8608E
:10294C00B9607A60FB6893F83C30012B01D102230B
:10295C00FDE0FB68012283F83C207B68142B00F21D
:10296C00F08001A252F823F0C92900084F2B00086F
:10297C004F2B00084F2B0008092A00084F2B00088A
:10298C004F2B00084F2B00084B2A00084F2B000838
:10299C004F2B00084F2B00088B2A00084F2B0008E8
:1029AC004F2B00084F2B0008CD2A00084F2B000896
:1029BC004F2B00084F2B00080D2B0008FB681B68E1
:1029CC00B968184600F0E6F9FB681B68FA681268EB
:1029DC00926942F008029A61FB681B68FA681268F7
:1029EC00926922F004029A61FB681B68FA6812680B
:1029FC009169BA6812690A439A61A3E0FB681B6883
:102A0C00B968184600F042FAFB681B68FA6812684D
:102A1C00926942F400629A61FB681B68FA6812685A
:102A2C00926922F480629A61FB681B68FA681268EA
:102A3C009169BA68126912020A439A6182E0FB68D2
:102A4C001B68B968184600F09BFAFB681B68FA68AB
:102A5C001268D26942F00802DA61FB681B68FA68F6
:102A6C001268D26922F00402DA61FB681B68FA680A
:102A7C001268D169BA6812690A43DA6162E0FB68CC
:102A8C001B68B968184600F0F3FAFB681B68FA6813
:102A9C001268D26942F40062DA61FB681B68FA685A
:102AAC001268D26922F48062DA61FB681B68FA68EA
:102ABC001268D169BA68126912020A43DA6141E0FC
:102ACC00FB681B68B968184600F030FBFB681B6894
:102ADC00FA681268526D42F008025A65FB681B686E
:102AEC00FA681268526D22F004025A65FB681B6882
:102AFC00FA681268516DBA6812690A435A6521E086
:102B0C00FB681B68B968184600F068FBFB681B681B
:102B1C00FA681268526D42F400625A65FB681B68D1
:102B2C00FA681268526D22F480625A65FB681B6861
:102B3C00FA681268516DBA68126912020A435A6532
:102B4C0000E000BFFB68002283F83C2000231846FD
:102B5C001037BD4680BD00BF80B584B000AF786033
:102B6C0039607B6893F83C30012B01D10223A8E03B
:102B7C007B68012283F83C207B68022283F83D208D
:102B8C007B681B689B68FB60FB6823F4803323F035
:102B9C007703FB60FB6823F47F43FB607B681B6857
:102BAC00FA689A603B681B68402B67D0402B0BD8A7
:102BBC00102B73D0102B02D8002B6FD078E0202B69
:102BCC006CD0302B6AD073E0702B0DD0702B04D8E6
:102BDC00502B33D0602B41D06AE0B3F5805F66D0C8
:102BEC00B3F5005F17D063E07B6818683B689968A1
:102BFC003B685A683B68DB6800F0C4FB7B681B6869
:102C0C009B68FB60FB6843F07703FB607B681B6889
:102C1C00FA689A604CE07B6818683B6899683B6876
:102C2C005A683B68DB6800F0ADFB7B681B687A6810
:102C3C001268926842F480429A6039E07B681868A6
:102C4C003B6859683B68DB681A4600F021FB7B68DF
:102C5C001B685021184600F07AFB29E07B68186845
:102C6C003B6859683B68DB681A4600F040FB7B68A0
:102C7C001B686021184600F06AFB19E07B68186835
:102C8C003B6859683B68DB681A4600F001FB7B68BF
:102C9C001B684021184600F05AFB09E07B681A6853
:102CAC003B681B681946104600F051FB00E000BF62
:102CBC007B68012283F83D207B68002283F83C204E
:102CCC00002318461037BD4680BD000080B485B087
:102CDC0000AF786039607B681B68FB607B682A4AB0
:102CEC00934203D07B68B3F1804F08D1FB6823F08B
:102CFC007003FB603B685B68FA681343FB607B689E
:102D0C00214A93420BD07B68B3F1804F07D07B688C
:102D1C001E4A934203D07B681D4A934208D1FB683C
:102D2C0023F44073FB603B68DB68FA681343FB6079
:102D3C00FB6823F080023B685B691343FB607B6894
:102D4C00FA681A603B689A687B68DA623B681A68B2
:102D5C007B689A627B680C4A934207D07B680B4A6B
:102D6C00934203D07B680A4A934203D13B681A69A9
:102D7C007B681A637B6801225A6100BF1437BD4619
:102D8C005DF8047B704700BF002C014000400140FF
:102D9C000044014080B487B000AF786039607B6834
:102DAC001B6A23F001027B681A627B681B6A7B61D9
:102DBC007B685B683B617B689B69FB60FB6823F409
:102DCC00803323F07003FB60FB6823F00303FB608C
:102DDC003B681B68FA681343FB607B6923F00203B2
:102DEC007B613B689B687A6913437B617B68244AEF
:102DFC00934207D07B68234A934203D07B68224AD4
:102E0C0093420CD17B6923F008037B613B68DB6840
:102E1C007A6913437B617B6923F004037B617B68D4
:102E2C00174A934207D07B68164A934203D07B68BB
:102E3C00154A934211D13B6923F480733B613B6982
:102E4C0023F400733B613B685B693A6913433B6154
:102E5C003B689B693A6913433B617B683A695A60EA
:102E6C007B68FA689A613B685A687B685A637B682E
:102E7C007A691A6200BF1C37BD465DF8047B704747
:102E8C00002C0140004001400044014080B487B058
:102E9C0000AF786039607B681B6A23F010027B6896
:102EAC001A627B681B6A7B617B685B683B617B6831
:102EBC009B69FB60FB6823F0807323F4E043FB60A9
:102ECC00FB6823F44073FB603B681B681B02FA68C9
:102EDC001343FB607B6923F020037B613B689B6899
:102EEC001B017A6913437B617B68224A93420DD1A3
:102EFC007B6923F080037B613B68DB681B017A698B
:102F0C0013437B617B6923F040037B617B68194A27
:102F1C00934207D07B68184A934203D07B68174AC8
:102F2C00934213D13B6923F480633B613B6923F4E7
:102F3C0000633B613B685B699B003A6913433B61EF
:102F4C003B689B699B003A6913433B617B683A6918
:102F5C005A607B68FA689A613B685A687B689A6326
:102F6C007B687A691A6200BF1C37BD465DF8047B2A
:102F7C00704700BF002C014000400140004401405C
:102F8C0080B487B000AF786039607B681B6A23F42B
:102F9C0080727B681A627B681B6A7B617B685B68EA
:102FAC003B617B68DB69FB60FB6823F4803323F0B7
:102FBC007003FB60FB6823F00303FB603B681B683A
:102FCC00FA681343FB607B6923F400737B613B68F5
:102FDC009B681B027A6913437B617B68214A93428D
:102FEC000DD17B6923F400637B613B68DB681B02BA
:102FFC007A6913437B617B6923F480637B617B6813
:10300C00184A934207D07B68174A934203D07B68D7
:10301C00164A934213D13B6923F480533B613B69BD
:10302C0023F400533B613B685B691B013A69134312
:10303C003B613B689B691B013A6913433B617B68AD
:10304C003A695A607B68FA68DA613B685A687B684F
:10305C00DA637B687A691A6200BF1C37BD465DF87B
:10306C00047B7047002C01400040014000440140AB
:10307C0080B487B000AF786039607B681B6A23F43A
:10308C0080527B681A627B681B6A3B617B685B6859
:10309C007B617B68DB69FB60FB6823F0807323F446
:1030AC00E043FB60FB6823F44073FB603B681B68E8
:1030BC001B02FA681343FB603B6923F400533B612A
:1030CC003B689B681B033A6913433B617B68144A5A
:1030DC00934207D07B68134A934203D07B68124A11
:1030EC00934209D17B6923F480437B613B685B6924
:1030FC009B017A6913437B617B687A695A607B68B0
:10310C00FA68DA613B685A687B681A647B683A69CA
:10311C001A6200BF1C37BD465DF8047B704700BFC8
:10312C00002C0140004001400044014080B487B0B5
:10313C0000AF786039607B681B6A23F480327B684F
:10314C001A627B681B6A3B617B685B687B617B688E
:10315C005B6DFB60FB6823F4803323F07003FB6032
:10316C003B681B68FA681343FB603B6923F400332C
:10317C003B613B689B681B043A6913433B617B686A
:10318C00134A934207D07B68124A934203D07B6860
:10319C00114A934209D17B6923F480337B613B68EC
:1031AC005B691B027A6913437B617B687A695A609D
:1031BC007B68FA685A653B685A687B689A657B68D5
:1031CC003A691A6200BF1C37BD465DF8047B704734
:1031DC00002C0140004001400044014080B487B005
:1031EC0000AF786039607B681B6A23F480127B68BF
:1031FC001A627B681B6A3B617B685B687B617B68DE
:10320C005B6DFB60FB6823F0807323F4E043FB6091
:10321C003B681B681B02FA681343FB603B6923F491
:10322C0000133B613B689B681B053A6913433B6188
:10323C007B68144A934207D07B68134A934203D0AD
:10324C007B68124A934209D17B6923F480237B610A
:10325C003B685B699B027A6913437B617B687A6983
:10326C005A607B68FA685A653B685A687B68DA650D
:10327C007B683A691A6200BF1C37BD465DF8047B57
:10328C00704700BF002C0140004001400044014049
:10329C0080B487B000AFF860B9607A60FB681B6AD5
:1032AC007B61FB681B6A23F00102FB681A62FB68F6
:1032BC009B693B613B6923F0F0033B617B681B011D
:1032CC003A6913433B617B6923F00A037B617A699A
:1032DC00BB6813437B61FB683A699A61FB687A6946
:1032EC001A6200BF1C37BD465DF8047B704780B482
:1032FC0087B000AFF860B9607A60FB681B6A23F096
:10330C001002FB681A62FB689B697B61FB681B6A95
:10331C003B617B6923F470437B617B681B037A6997
:10332C0013437B613B6923F0A0033B61BB681B012A
:10333C003A6913433B61FB687A699A61FB683A69A5
:10334C001A6200BF1C37BD465DF8047B704780B421
:10335C0085B000AF786039607B689B68FB60FB6868
:10336C0023F07003FB603A68FB68134343F00703D8
:10337C00FB607B68FA689A6000BF1437BD465DF845
:10338C00047B704780B487B000AFF860B9607A6096
:10339C003B60FB689B687B617B6923F47F437B61AB
:1033AC003B681A027B681A43BB6813437A69134360
:1033BC007B61FB687A699A6000BF1C37BD465DF87B
:1033CC00047B704780B487B000AFF860B9607A6056
:1033DC00BB6803F01F03012202FA03F37B61FB6855
:1033EC001A6A7B69DB431A40FB681A62FB681A6A2B
:1033FC00BB6803F01F03796801FA03F31A43FB68F7
:10340C001A6200BF1C37BD465DF8047B7047000094
:10341C0080B485B000AF786039607B6893F83C303D
:10342C00012B01D102234FE07B68012283F83C2061
:10343C007B68022283F83D207B681B685B68FB601D
:10344C007B681B689B68BB607B681B68214A934246
:10345C0008D1FB6823F47003FB603B685B68FA6877
:10346C001343FB60FB6823F07003FB603B681B6835
:10347C00FA681343FB607B681B68FA685A607B68C8
:10348C001B68144A934209D07B681B68B3F1804FC8
:10349C0004D07B681B68104A93420CD1BB6823F0A4
:1034AC008003BB603B689B68BA681343BB607B6856
:1034BC001B68BA689A607B68012283F83D207B68A0
:1034CC00002283F83C20002318461437BD465DF8D3
:1034DC00047B7047002C01400040014080B582B055
:1034EC0000AF78607B68002B01D1012340E07B6842
:1034FC005B6F002B06D17B68002283F87020786804
:10350C00FDF7FAFA7B6824225A677B681B687A6895
:10351C001268126822F001021A60786800F02CF828
:10352C000346012B01D1012322E07B685B6A002B4F
:10353C0002D0786800F028FA7B681B687A681268F9
:10354C00526822F490425A607B681B687A68126851
:10355C00926822F02A029A607B681B687A6812686B
:10356C00126842F001021A60786800F0AFFA034664
:10357C0018460837BD4680BDB0B588B000AF78603E
:10358C000023BB767B689A687B681B691A437B684F
:10359C005B691A437B68DB691343FB617B681A68C0
:1035AC007B681B681968AC4B0B40F9690B431360C3
:1035BC007B681B687A681268526822F440517A68FA
:1035CC00D2680A435A607B689B69FB617B681B6805
:1035DC00A24A934204D07B681B6AFA691343FB61CD
:1035EC007B681B687A681268926822F43061FA6909
:1035FC000A439A607B681B68994A934222D1994B83
:10360C00D3F8883003F00303032B17D801A252F828
:10361C0023F000BF313600083D360008373600086D
:10362C00433600080123FB7672E00223FB766FE041
:10363C000423FB766CE00823FB7669E01023FB7611
:10364C0000BF65E07B681B68874A934234D1854B89
:10365C00D3F8883003F00C030C2B29D801A252F8B4
:10366C0023F000BFA5360008BD360008BD360008A3
:10367C00BD360008B1360008BD360008BD3600085E
:10368C00BD360008AB360008BD360008BD36000854
:10369C00BD360008B73600080023FB7638E002235D
:1036AC00FB7635E00423FB7632E00823FB762FE033
:1036BC001023FB7600BF2BE07B681B68674A9342A4
:1036CC0024D1684BD3F8883003F44063B3F5806F92
:1036DC0012D0B3F5806F02D8002B07D012E0B3F5EF
:1036EC00006F06D0B3F5406F09D00BE00023FB76DA
:1036FC000EE00223FB760BE00423FB7608E00823A4
:10370C00FB7605E01023FB7600BF01E01023FB766F
:10371C007B681B68514A93426DD1FB7E082B24D8E1
:10372C0001A252F823F000BF593700087737000880
:10373C0061370008773700086737000877370008CB
:10374C0077370008773700086F370008FEF7E0FB83
:10375C0078610FE0454B7B610CE0FEF743FB786131
:10376C0008E04FF400437B6104E000237B610123FC
:10377C00BB7600BF7B69002B00F0F8807B685A6831
:10378C0013465B001A447B699A4205D87B685B68D8
:10379C001A037B699A4202D20123BB76E6E07B696D
:1037AC001A464FF000031D0245EA126514027B68AD
:1037BC005B685B081A464FF00003A01845EB030149
:1037CC007B685B684FF000041A462346FCF7F8FC54
:1037DC0003460C463B613B69B3F5407F08D33B691C
:1037EC00B3F5801F04D27B681B683A69DA60BDE0D0
:1037FC000123BB76BAE07B68DB69B3F5004F68D177
:10380C00FB7E082B34D801A252F823F03D38000877
:10381C00453800084D3800087D380008533800083A
:10382C007D3800087D3800087D3800085B380008BA
:10383C00FEF76EFB786120E0FEF780FB78611CE000
:10384C000A4B7B6119E0FEF7CDFA786115E04FF475
:10385C0000437B6111E000BFF369FFEF0080004083
:10386C000038014000100240004400400024F400E5
:10387C0000237B610123BB7600BF7B69002B75D0D5
:10388C007B695A007B685B685B081A447B685B68E1
:10389C00B2FBF3F39BB23B613B690F2B16D93B692F
:1038AC00B3F5803F12D23B699BB223F00F03FB812F
:1038BC003B695B089BB203F007039AB2FB89134385
:1038CC00FB817B681B68FA89DA604FE00123BB76C9
:1038DC004CE0FB7E082B28D801A252F823F000BF45
:1038EC001139000819390008213900083739000846
:1038FC0027390008373900083739000837390008EC
:10390C002F390008FEF704FB786113E0FEF716FB75
:10391C0078610FE01B4B7B610CE0FEF763FA78617A
:10392C0008E04FF400437B6104E000237B6101233A
:10393C00BB7600BF7B69002B18D07B685B685A088C
:10394C007B691A447B685B68B2FBF3F39BB23B6107
:10395C003B690F2B08D93B69B3F5803F04D27B68D8
:10396C001B683A69DA6001E00123BB767B680022B0
:10397C001A667B6800225A66BB7E18462037BD4605
:10398C00B0BD00BF0024F40080B483B000AF7860F9
:10399C007B685B6A03F00103002B0AD07B681B6811
:1039AC007A681268526822F400317A68926A0A4383
:1039BC005A607B685B6A03F00203002B0AD07B68B9
:1039CC001B687A681268526822F480317A68D26A6D
:1039DC000A435A607B685B6A03F00403002B0AD02D
:1039EC007B681B687A681268526822F480217A68B6
:1039FC00126B0A435A607B685B6A03F00803002B66
:103A0C000AD07B681B687A681268526822F40041FD
:103A1C007A68526B0A435A607B685B6A03F0100346
:103A2C00002B0AD07B681B687A681268926822F4B3
:103A3C0080517A68926B0A439A607B685B6A03F0E8
:103A4C002003002B0AD07B681B687A681268926886
:103A5C0022F400517A68D26B0A439A607B685B6AE5
:103A6C0003F04003002B1AD07B681B687A6812683D
:103A7C00526822F480117A68126C0A435A607B688F
:103A8C001B6CB3F5801F0AD17B681B687A681268BF
:103A9C00526822F4C0017A68526C0A435A607B68FF
:103AAC005B6A03F08003002B0AD07B681B687A6882
:103ABC001268526822F400217A68926C0A435A60A8
:103ACC0000BF0C37BD465DF8047B704780B586B0EF
:103ADC0002AF78607B680022DA67FDF72DF9F86099
:103AEC007B681B681B6803F00803082B0ED16FF072
:103AFC007E430093FB6800224FF40011786800F0BD
:103B0C002AF80346002B01D0032320E07B681B68B6
:103B1C001B6803F00403042B0ED16FF07E4300935B
:103B2C00FB6800224FF48001786800F014F803461B
:103B3C00002B01D003230AE07B6820225A677B68A4
:103B4C0020229A677B68002283F870200023184695
:103B5C001037BD4680BD80B584B000AFF860B96049
:103B6C003B601346FB715DE0BB69B3F1FF3F59D07D
:103B7C00FDF7E2F802463B68D21ABB699A4202D8BA
:103B8C00BB69002B1BD1FB681B68FA6812681268B2
:103B9C0022F4D0721A60FB681B68FA68126892688B
:103BAC0022F001029A60FB6820225A67FB682022EF
:103BBC009A67FB68002283F87020032342E0FB68BD
:103BCC001B681B6803F00403002B2BD0FB681B68DD
:103BDC00DB6903F40063B3F5006F23D1FB681B684A
:103BEC004FF400621A62FB681B68FA68126812686C
:103BFC0022F4D0721A60FB681B68FA68126892682B
:103C0C0022F001029A60FB6820225A67FB6820228E
:103C1C009A67FB682022DA67FB68002283F8702021
:103C2C0003230FE0FB681B68DA69BB681A40BB68AA
:103C3C009A420CBF01230023DBB21A46FB799A424D
:103C4C0092D0002318461037BD4680BDDFF834D023
:103C5C00FCF7D4FF002103E00B4B5B5843500431BD
:103C6C000A480B4B42189A42F6D30A4A02E0002348
:103C7C0042F8043B084B9A42F9D300F011F8FCF7D8
:103C8C00C7FCFEE700000120743D00080000002086
:103C9C001000002010000020FC000020FEE70000B7
:103CAC0070B50D4E0D4CA41BA4100025A54209D1D6
:103CBC000B4E0C4C00F020F8A41BA4100025A542C0
:103CCC0005D170BD56F8253098470135EEE756F80A
:103CDC00253098470135F2E76C3D00086C3D000833
:103CEC006C3D0008703D000802440346934200D12D
:103CFC00704703F8011BF9E7F8B500BFF8BC08BC26
:103D0C009E467047F8B500BFF8BC08BC9E4670478D
:103D1C00000000000000000001020304060708096F
:103D2C000000000001020304A0860100400D030006
:103D3C00801A060000350C0040420F0080841E00E3
:103D4C0000093D0000127A000024F40000366E01D8
:083D5C000048E801006CDC02E4
:083D640098C4FF7F010000007C
:043D6C00B101000899
:043D70008D010008B9
:103D74001900000000093D001000000001000000CF
:0400000508003C595A
:00000001FF
